:020000020000FC
:0C0000000C9418000C94CB000C94CC0065
:04001C000C94CD0073
:100028000C94DE000C94D6000FEF0ABB07BB002728
:1000380001BB0BBB08BB05BB02BB08E00EBF0FE54D
:100048000DBF03E000BF30E000E0002E00E0102EFE
:1000580000E0202E00E0302E0FE0702E0DE003BFF0
:100068000DE00EBD0FEF0CBF0DE30BBD08E00ABDA0
:1000780001E109BF0FE005BF00EC0BBF00270ABF75
:100088007894032E00C0002D88940A3088F01394C9
:100098000A50002E012D8894063050F02394065003
:1000A800102E022D88940A3018F033940A50202E0E
:1000B800D13041F0D23051F0D33061F0D43071F00A
:1000C8000C945C0001E00BBB0F920CC002E00BBB70
:1000D8001F9208C004E00BBB2F9204C008E00BBBC2
:1000E8003F9200C00F910030B1F00130D1F00230E2
:1000F800F1F0033011F1043031F1053051F10630DF
:1001080071F1073091F10830B1F10930D1F10BB339
:1001180007250BBBB6CF002708BB0FE308BB0C9421
:100128004500002708BB06E008BB0C9445000027E3
:1001380008BB0BE508BB0C944500002708BB0FE47F
:1001480008BB0C944500002708BB06E608BB0C94C6
:100158004500002708BB0DE608BB0C9445000027A6
:1001680008BB0DE708BB0C944500002708BB07E057
:1001780008BB0C944500002708BB0FE708BB0C948C
:100188004500002708BB0FE608BB0C9445001895EE
:1001980018954FB74F9333954F914FBF1895D1E0AE
:1001A8000C94DB004FB74F93D395D530C1F34F91E3
:0601B8004FBF18951895D9
:00000001FF
