:020000020000FC
:0C0000000C9418000C94CD000C94CE0061
:04001C000C94CF0071
:100028000C94E0000C94D8000FEF0ABB04BB002727
:1000380001BB0BBB05BB05BB02BB08E00EBF0FE550
:100048000DBF03E000BF30E004E0002E00E0102EFA
:1000580000E0202E00E0302E0FE0702E0DE003BFF0
:100068000DE00EBD0FEF0CBF0EE10BBD04E80ABD9D
:1000780001E109BF0FE005BF00EC0BBF00270ABF75
:10008800789430E0032E00C0002D88940A3090F058
:1000980013940A50002E3327012D8894063050F00F
:1000A80023940650102E022D8894093018F03394AA
:1000B8000950202ED13041F0D23051F0D33061F0C8
:1000C800D43071F00C945E0007E00BBB0F920CC0AB
:1000D8000BE00BBB1F9208C00DE00BBB2F9204C0B6
:1000E8000EE00BBB3F9200C00F910030B1F0013021
:1000F800D1F00230F1F0033011F1043031F1053064
:1001080051F1063071F1073091F10830B1F1093041
:10011800D1F10BB307250BBBB5CF002705BB0FE308
:1001280005BB0C944600002705BB06E005BB0C94F4
:100138004600002705BB0BE505BB0C9446000027CD
:1001480005BB0FE405BB0C944600002705BB06E67B
:1001580005BB0C944600002705BB0DE605BB0C94B7
:100168004600002705BB0DE705BB0C944600002799
:1001780005BB07E005BB0C944600002705BB0FE74D
:1001880005BB0C944600002705BB0FE605BB0C9485
:100198004600189518954FB74F9333954F914FBF19
:1001A8001895D1E00C94DD004FB74F93D395D53017
:0A01B800C1F34F914FBF1895189541
:00000001FF
